:020000040000FA
:10000000600100206D020000710200007302000018
:10001000750200007502000075020000000000007B
:100020000000000000000000000000007502000059
:10003000750200000000000075020000750200005B
:1000400075020000750200007502000075020000D4
:1000500075020000750200007502000075020000C4
:1000600075020000750200007502000075020000B4
:1000700075020000750200007502000075020000A4
:100080007502000075020000750200007502000094
:100090007502000075020000750200007502000084
:1000A0007502000075020000750200007502000074
:1000B0007502000075020000750200007502000064
:1000C0007502000075020000750200007502000054
:1000D0007502000075020000750200007502000044
:1000E0007502000075020000750200007502000034
:1000F0007502000075020000750200007502000024
:100100007502000075020000750200007502000013
:100110007502000075020000750200007502000003
:1001200075020000750200007502000075020000F3
:1001300075020000750200007502000075020000E3
:1001400000000000000000000000000000000000AF
:1001500075020000750200007502000075020000C3
:10016000000000000000000000000000000000008F
:10017000000000000000000000000000000000007F
:10018000000000000000000000000000000000006F
:10019000000000000000000000000000000000005F
:1001A000000000000000000000000000000000004F
:1001B0007502000075020000750200007502000063
:1001C0007502000075020000750200007502000053
:1001D0007502000075020000750200007502000043
:1001E0007502000075020000750200007502000033
:1001F0007502000075020000750200007502000023
:100200007502000075020000750200000000000089
:100210007502000075020000750200007502000002
:1002200075020000750200007502000075020000F2
:1002300075020000750200007502000075020000E2
:1002400075020000750200007502000075020000D2
:1002500075020000750200007502000075020000C2
:1002600075020000750200007502000000F004B87D
:10027000FEE7FEE7FEE7000000F002F800F02CF8D1
:100280000AA090E8000C82448344AAF10107DA45F1
:1002900001D100F021F8AFF2090EBAE80F0013F017
:1002A000010F18BFFB1A43F0010318472408000090
:1002B000340800000023002400250026103A28BF3F
:1002C00078C1FBD8520728BF30C148BF0B607047C8
:1002D0001FB51FBD10B510BD00F0C5F81146FFF7E2
:1002E000F7FF00F02AF800F0E3F803B4FFF7F2FF9D
:1002F00003BC00F0E7F800000138FDD170470000B2
:1003000002480349014A034B704700006000002087
:10031000600100206000002010B5044604E0217850
:10032000314800F025FB641C20780028F7D110BD6F
:1003300000BF01780029FCD170472C4800F06CFA0E
:100340002B4800F005FB2B4800F002FB2948C01D9C
:1003500000F0FEFA0121284800F04FF940F2014078
:1003600000F024F903214FF0402000F054F90A2353
:1003700002220121204800F0C0F800F05BF9054698
:1003800060234FF416522946174800F0F7FA1BA0D5
:10039000FFF7C2FF26E00121174800F02BF938B91A
:1003A00000BF0121144800F025F90028F9D0641C91
:1003B000012C0AD10D210C4800F0DAFA14A0FFF745
:1003C000ABFF1A48FFF798FF0CE0022C0AD10D2171
:1003D000054800F0CDFA16A0FFF79EFF0024134851
:1003E000FFF78AFFD7E7000000C00040803B80078E
:1003F000010000100100002000700040416E6820E4
:10040000686F61206465702074726169000000008B
:100410004E67616E683A204B69207468756174207C
:100420006D61792074696E6800000000959A230060
:100430004B686F613A206B31322D44616920486FFF
:100440006320436F6E67204E67686965702048615E
:10045000204E6F69203A323031372D323032310040
:10046000704770477047754600F028F8AE460500A3
:100470006946534620F00700854618B020B5FFF7BF
:100480003FFFBDE820404FF000064FF000074FF05F
:1004900000084FF0000B21F00701AC46ACE8C009A2
:1004A000ACE8C009ACE8C009ACE8C0098D467047AB
:1004B0000446AFF300802046FFF717FF004870475F
:1004C0000000002001491820ABBEFEE72600020014
:1004D0007047D0F8003412F0010F0CBF8B430B4370
:1004E000C0F8003412F0020FD0F820240CBF22EA2A
:1004F00001011143C0F820147047D0F800C512F074
:10050000010F0CBF2CEA010C4CEA010CC0F800C52D
:10051000D0F804C512F0020F0CBF2CEA010C4CEA13
:10052000010CC0F804C5D0F808C512F0040F0CBFC8
:100530002CEA010C4CEA010CC0F808C512F0080FB7
:10054000D0F818250CBF8A430A43C0F81825D0F804
:100550000C2513F0010F0CBF8A430A43C0F80C2589
:10056000D0F8102513F0020F0CBF8A430A43C0F8DD
:100570001025D0F8142513F0040F0CBF8A430A434A
:10058000C0F81425D0F81C2513F0080F0CBF8A43BF
:100590000A43C0F81C25D0F82825002B14BF22EAF6
:1005A00001011143C0F82815704700000F4AC0F33D
:1005B0000741D26E01238B401A420D4A0EBF52F8FA
:1005C000311002EBC1014968C0F30722D1F82C3584
:1005D0004FF00F0C0CFA02FC00F00F0023EA0C03A2
:1005E00090401843C1F82C057047000000E00F4010
:1005F000EC09000050F82100704730B504460D4664
:100600000022FFF766FF29462046BDE83040082358
:100610000122FFF772BF30B504460D460222FFF7F4
:1006200058FF29462046BDE8304008230122FFF745
:1006300064BF000030B4DFF8B4C1DCF86020DCF83F
:10064000701011F0004F0CBF02F0300001F070008C
:10065000674C302808BF47F2305061D029DCA8B37E
:10066000644D654B102839D020282CD1DCF80000CF
:1006700010F0E04F1DBFDCF800002040B0F1805FBB
:100680005E484DD0DCF800002040A84202BFDCF8F4
:10069000000080B202280AD0DCF800002040984216
:1006A00003BFDCF8000080B20028554838D1554817
:1006B00036E0602808BF4FF4800031D0702808BFB2
:1006C0004FF400402CD030BC00207047FFE74E4B69
:1006D00002F4F86003EB1010006821E0DCF8000081
:1006E00010F0E04F1DBFDCF800002040B0F1805F4B
:1006F000464815D0DCF800002040A84202BFDCF8D4
:10070000000080B202280AD0DCF8000020409842A5
:1007100003BFDCF8000080B200283D4800D13D480E
:1007200011F0004F02D011F4006F05D001F000432A
:1007300002F400652B432DD1DCF86430DCF8005066
:1007400015F0E04F1EBFDCF800C00CEA040CBCF151
:10075000805F0AD1C3F3481C0CF1020C00FB0CF0C3
:1007600003F01F0C0CF1020C08E04FEAC36C4FEAD7
:100770009C6CC3F348140CF1020C6043B0FBFCF01A
:1007800013F4804F18BF400813F4004F18BF8008BF
:1007900042F4800212F4800F04BF30BC704711F0A5
:1007A000004F01BFC2F3C351491CB0FBF1F030BC94
:1007B00008BF704711F0804F10D011F4006F05D0C2
:1007C00001F0004302F400621A4307D14000C1F374
:1007D0008651491CB0FBF1F030BC7047C1F3C551E4
:1007E000491CB0FBF1F030BC7047000000E00F4046
:1007F0000000FF7000000110000003107038390085
:1008000000093D00C0C62D00740A0000C0E1E400EC
:100810000024F400001BB7002DE9F041464F0446C8
:10082000386810F0E04F05D0386844490840B0F10E
:10083000805F04D114F0004F18BFBDE8F081396E1D
:10084000386F21F4800141F4006540F400663D6694
:100850003E6715F0020F02D014F0020F04D025EA13
:10086000040010F0010F19D064F0030005403D664C
:1008700016F0004F08D006F0700030281CBF702022
:1008800030EA060006D102E03020A84302D14FF43E
:10089000805001E04FF40020FFF72EFD25F4FE60AC
:1008A00043F2F07120F44050214041EA000824480E
:1008B000244930402140084304F0080140EAC105C2
:1008C0004020B86515F0004F18BF3D67C7F860803D
:1008D00008BF3D671020FFF70FFD1B4928F00300FC
:1008E00020F0F8602140014325F0FC5004F0FC5258
:1008F000104314F0804F08BF20F0804206D0134A06
:1009000020F48000224041F48001024314F4006F7F
:100910000BD14FF400403B6D13F0400F01D1401E4E
:10092000F9D121F4006122F4006239663A67BDE82A
:10093000F0411020FFF7E0BC00E00F400000FF7026
:100940008FDFFF7F302000800300C00700004040A1
:10095000064A010F52F821100A6883B2C0F304401E
:1009600003FA00F01043086070470000500A0000CE
:10097000826912F0200FFBD101607047D0F818C0D7
:100980001CF0080FFAD1D0F82CC02CF0100CC0F8D5
:100990002CC0D0F830C02CF0010C2CF4407CC0F8F6
:1009A00030C0D0F830C0B1EB021F2CBF2CF0200CAF
:1009B0004CF0200CC0F830C038BF5208C900B1FB61
:1009C000F2F1491C49088A09426201F03F01816243
:1009D000C36200218161C16A41F01001C162016BF3
:1009E00040F20132114301637047000000400040B3
:1009F000008005400050004000900540006000402D
:100A000000A005400070004000B0054000400240DA
:100A100000C005400050024000D005400060024088
:100A200000E005400070024000F0054000D00340A7
:100A30000000064010E00F4014E00F401CE00F40A3
:100A400010E00F4040E00F4044E00F4048E00F400E
:100A500000E10F4004E10F4008E10F4010E10F40BA
:100A600014E10F4018E10F4020E10F4024E10F4056
:100A700028E10F4040420F0000201C0080841E002F
:100A800000802500999E36000040380000093D0096
:100A900000803E0000004B00404B4C0000204E0008
:100AA000808D5B0000C05D000080700000127A0045
:100AB00000007D0080969800001BB7000080BB00FE
:100AC000C0E8CE00647ADA000024F4000000FA00E6
:100AD000E00A00000000002060010000B4020000F5
:040000050000026D88
:00000001FF
